09999QUALQUER TIPO DE PECA         00005000000364
10001PECA EXEMPLO DEF456 DEF456    00100000035063
10002PECA EXEMPLO GHI789 GHI789    00001000124983
10003PECA EXEMPLO JKL123 JKL123    00111000008983
10004PECA EXEMPLO MNO456 MNO456    00020000001583
10006PECA EXEMPLO STU123 STU123    00345000000453
10007PECA EXEMPLO VXZ456 VXZ456    00256000000083
