00001FFFFF FFFF FFFFF FFFFF        010280010204RUA ABD                       00001000SP    000350000000080000A
00002GGGGGG GGGGG GGGGGG GGGG      010280011114RUA EFG                       00002000SP    000480000000080000A
10002HHHH HHH HHHHHH HHHHH         010280010204RUA ASDFASDF                  00001000SP    000350000000080000A
10003IIIIIIIII IIIIIIIIIIII        010280010204RUA AAFASSDF                  00001000SP    000300000000050000A
10004JJJJJJ JJJJJJJ JJJJJJJ        010580010504RUA ASDFASDF                  00001000      000350000000080000B
10005KKKKKKKKK KKKKK               010280010504RUA ASGDSFD                   00001000SP    000380000000100000C
10010LLLLLL LLLLLL LLLLLL          010280050404RUA ASGFDFASDF                00001001MG    000500000000150000D
10012AAAA AAAA AAAAA AAAAA         010280050404RUA ASGFDFASDF                00001001SP    000165000000150000D
10020BBB BBBBBBB BBBBBBBBB         010280050404RUA ASGFDFASDF                00001001SP    000280000000150000D
10030CCCCCC CCCC CC CCCCCC         010280050404RUA ASGFDFASDF                00001001SP    000150000000150000D
10035DDDDD DDDDDDD DDDDDD          010280050404RUA ASGFDFASDF                00001001SP    000200000000150000D
10040EEEEEEEEEE EE EEEEE EEEEEE    010280050404RUA ASGFDFASDF                00001001SP    000300000000150000D
10050MMMMMMM MMMMMMMM MM MMMMM     010578010504RUA ASFASDGFASF               12345678SP    000256800000062500X
