80001COMPUTADOR PENTIUN  000100150000123701
80002COMP. PENTIUM II 300000050220000123701
80003IMPRESSORA HP 692C  001000032989123702
80004CARTUCHO PRETO      0023200085001237020001
80005CARTUCHO COLORIDO   0028900087001237020001
80006PENTE DE MEMORIA 32K001880006500123703
80007PENTE DE MEMORIA 64K002360006800123703
80008WINCHESTER 10GB     000150038500123705
80009VIDEO COMPAQ 141    000670048500123710
80010TECLADO DIGITAL     001850009675123711
