09999QUALQUER TIPO DE PECA         00005000029999900044000000364000025600X
10001PECA EXEMPLO DEF456 DEF456    00100000059999900015000035063000564000N
10000PECA EXEMPLO ABC123 ABC123    00010000019999900001000158983000040000A
10002PECA EXEMPLO GHI789 GHI789    00001000019999901223000124983002560000D
10003PECA EXEMPLO JKL123 JKL123    00111001009999900004000008983003120000W
10004PECA EXEMPLO MNO456 MNO456    00020000019999900501000001583000044585U
10006PECA EXEMPLO STU123 STU123    00345003009999909824000000453000003458D
10005PECA EXEMPLO PQR789 PQR789    00450010009999900783000000983000345963Q
10007PECA EXEMPLO VXZ456 VXZ456    00256002009999900006000000083000345600A
